:020000040800F2
:1000000000A000206D330008BD330008BD33000898
:10001000BD330008BD330008BD33000800000000F8
:10002000000000000000000000000000BD330008D8
:10003000BD33000800000000BD3300085D33000838
:10004000BD330008BD330008BD330008BD330008D0
:10005000BD330008BD330008BD330008BD330008C0
:10006000BD330008BD330008BD330008BD330008B0
:10007000BD330008BD330008BD330008BD330008A0
:10008000BD330008BD330008BD330008BD33000890
:10009000BD330008BD330008BD330008BD33000880
:1000A000BD330008BD330008BD330008BD33000870
:1000B000BD330008BD330008BD330008BD33000860
:1000C000BD330008BD330008BD330008BD33000850
:1000D000BD330008BD330008BD330008BD33000840
:1000E000BD330008BD330008BD330008BD33000830
:1000F000BD330008BD330008BD330008BD33000820
:10010000000000000000000000000000BD330008F7
:10011000BD330008BD330008BD330008BD330008FF
:10012000BD330008BD330008BD330008BD330008EF
:10013000BD330008BD3300080000000000000000CF
:10014000BD330008BD330008BD33000800000000C7
:10015000000000000000000000000000000000009F
:100160000000000000000000BD330008BD3300089F
:10017000BD33000800000000000000000000000087
:0801800000000000BD3300087F
:1001880008B50548054B1B1A062B00D808BD044BBB
:10019800002BFBD09847F9E7A0000020A30000201F
:1001A8000000000008B50748074B1B1A9B1003EB1B
:1001B800D373591000D108BD044A002AFBD09047D8
:1001C800F9E700BFA0000020A00000200000000008
:1001D80010B5064C237843B9FFF7D2FF044B13B18F
:1001E8000448AFF300800123237010BDA000002055
:1001F80000000000404E000808B5074B1BB1074837
:100208000749AFF300800748036813B1064B03B1F1
:100218009847BDE80840C5E700000000404E0008C8
:10022800A4000020A00000200000000081F0004190
:1002380002E000BF83F0004330B54FEA41044FEAC3
:10024800430594EA050F08BF90EA020F1FBF54EA5E
:10025800000C55EA020C7FEA645C7FEA655C00F0FA
:10026800E2804FEA5454D4EB5555B8BF6D420CDDCB
:100278002C4480EA020281EA030382EA000083EA4E
:10028800010180EA020281EA0303362D88BF30BDEE
:1002980011F0004F4FEA01314FF4801C4CEA113144
:1002A80002D0404261EB410113F0004F4FEA0333A3
:1002B8004CEA133302D0524263EB430394EA050F2E
:1002C80000F0A780A4F10104D5F1200E0DDB02FA9D
:1002D8000EFC22FA05F2801841F1000103FA0EF231
:1002E800801843FA05F359410EE0A5F120050EF1F7
:1002F800200E012A03FA0EFC28BF4CF0020C43FA28
:1003080005F3C01851EBE37101F0004507D54FF034
:10031800000EDCF1000C7EEB00006EEB0101B1F584
:10032800801F1BD3B1F5001F0CD349085FEA3000CA
:100338004FEA3C0C04F101044FEA445212F5800FD5
:1003480080F09A80BCF1004F08BF5FEA500C50F172
:10035800000041EB045141EA050130BD5FEA4C0C55
:10036800404141EB010111F4801FA4F10104E9D1DE
:1003780091F0000F04BF01460020B1FA81F308BFD5
:100388002033A3F10B03B3F120020CDA0C3208DDA1
:1003980002F1140CC2F10C0201FA0CF021FA02F17C
:1003A8000CE002F11402D8BFC2F1200C01FA02F1EC
:1003B80020FA0CFCDCBF41EA0C019040E41AA2BF11
:1003C80001EB0451294330BD6FEA04041F3C1CDAD9
:1003D8000C340EDC04F11404C4F1200220FA04F0F9
:1003E80001FA02F340EA030021FA04F345EA0301A3
:1003F80030BDC4F10C04C4F1200220FA02F001FA65
:1004080004F340EA0300294630BD21FA04F02946E6
:1004180030BD94F0000F83F4801306BF81F480117F
:100428000134013D4EE77FEA645C18BF7FEA655CF2
:1004380029D094EA050F08BF90EA020F05D054EAC4
:10044800000C04BF1946104630BD91EA030F1EBFC9
:100458000021002030BD5FEA545C05D140004941CD
:1004680028BF41F0004130BD14F580043CBF01F5C0
:10047800801130BD01F0004545F0FE4141F47001A6
:100488004FF0000030BD7FEA645C1ABF1946104681
:100498007FEA655C1CBF0B46024650EA013406BF82
:1004A80052EA033591EA030F41F4002130BD00BF41
:1004B80090F0000F04BF0021704730B54FF48064FE
:1004C80004F132044FF000054FF0000150E700BF7F
:1004D80090F0000F04BF0021704730B54FF48064DE
:1004E80004F1320410F0004548BF40424FF00001CB
:1004F8003EE700BF42004FEAE2014FEA31014FEA0E
:1005080002701FBF12F07F4393F07F4F81F060515C
:10051800704792F0000F14BF93F07F4F704730B5CB
:100528004FF4607401F0004521F0004120E700BF5E
:1005380050EA010208BF704730B54FF000050AE0E5
:1005480050EA010208BF704730B511F0004502D5E6
:10055800404261EB41014FF4806404F132045FEAE8
:10056800915C3FF4DCAE4FF003025FEADC0C18BF8D
:1005780003325FEADC0C18BF033202EBDC02C2F183
:10058800200300FA03FC20FA02F001FA03FE40EA15
:100598000E0021FA02F11444C1E600BF70B54FF015
:1005A800FF0C4CF4E06C1CEA11541DBF1CEA1355F7
:1005B80094EA0C0F95EA0C0F00F0DEF82C4481EA5F
:1005C800030621EA4C5123EA4C5350EA013518BF7F
:1005D80052EA033541F4801143F4801338D0A0FB6C
:1005E80002CE4FF00005E1FB02E506F00042E0FB19
:1005F80003E54FF00006E1FB03569CF0000F18BF1F
:100608004EF0010EA4F1FF04B6F5007F64F54074C6
:1006180004D25FEA4E0E6D4146EB060642EAC62159
:1006280041EA55514FEAC52040EA5E504FEACE2EC6
:10063800B4F1FD0C88BFBCF5E06F1ED8BEF1004FC9
:1006480008BF5FEA500E50F1000041EB045170BD45
:1006580006F0004646EA010140EA020081EA030189
:10066800B4EB5C04C2BFD4EB0C0541EA045170BD85
:1006780041F480114FF0000E013C00F3AB8014F1FF
:10068800360FDEBF002001F0004170BDC4F1000448
:10069800203C35DA0C341BDC04F11404C4F12005C9
:1006A80000FA05F320FA04F001FA05F240EA020024
:1006B80001F0004221F0004110EBD37021FA04F65A
:1006C80042EB06015EEA430E08BF20EAD37070BD14
:1006D800C4F10C04C4F1200500FA04F320FA05F073
:1006E80001FA04F240EA020001F0004110EBD37075
:1006F80041F100015EEA430E08BF20EAD37070BDE5
:10070800C4F1200500FA05F24EEA020E20FA04F3BD
:1007180001FA05F243EA020321FA04F001F000416C
:1007280021FA04F220EA020000EBD3705EEA430EDD
:1007380008BF20EAD37070BD94F0000F0FD101F00C
:100748000046400041EB010111F4801F08BF013C45
:10075800F7D041EA060195F0000F18BF704703F083
:100768000046520043EB030313F4801F08BF013D0A
:10077800F7D043EA0603704794EA0C0F0CEA1355C6
:1007880018BF95EA0C0F0CD050EA410618BF52EA80
:100798004306D1D181EA030101F000414FF0000086
:1007A80070BD50EA410606BF1046194652EA430694
:1007B80019D094EA0C0F02D150EA013613D195EA08
:1007C8000C0F05D152EA03361CBF104619460AD150
:1007D80081EA030101F0004141F0FE4141F470015A
:1007E8004FF0000070BD41F0FE4141F4780170BD4A
:1007F80070B54FF0FF0C4CF4E06C1CEA11541DBFAF
:100808001CEA135594EA0C0F95EA0C0F00F0A7F8B0
:10081800A4EB050481EA030E52EA03354FEA0131DD
:1008280000F088804FEA03334FF0805545EA1313F0
:1008380043EA12634FEA022245EA111545EA1065B8
:100848004FEA00260EF000419D4208BF964244F14F
:10085800FD0404F5407402D25B084FEA3202B61A6E
:1008680065EB03055B084FEA32024FF480104FF442
:10087800002CB6EB020E75EB030E22BFB61A7546B6
:1008880040EA0C005B084FEA3202B6EB020E75EB49
:10089800030E22BFB61A754640EA5C005B084FEAB1
:1008A8003202B6EB020E75EB030E22BFB61A75467E
:1008B80040EA9C005B084FEA3202B6EB020E75EB89
:1008C800030E22BFB61A754640EADC0055EA060E4A
:1008D80018D04FEA051545EA16754FEA06164FEA8D
:1008E800C30343EA52734FEAC2025FEA1C1CC0D139
:1008F80011F4801F0BD141EA00014FF000004FF0C6
:10090800004CB6E711F4801F04BF01430020B4F186
:10091800FD0C88BFBCF5E06F3FF6AFAEB5EB030C3E
:1009280004BFB6EB020C5FEA500C50F1000041EB3B
:10093800045170BD0EF0004E4EEA113114EB5C0408
:10094800C2BFD4EB0C0541EA045170BD41F48011DB
:100958004FF0000E013C90E645EA060E8DE60CEAE3
:10096800135594EA0C0F08BF95EA0C0F3FF43BAF00
:1009780094EA0C0F0AD150EA01347FF434AF95EAB7
:100988000C0F7FF425AF104619462CE795EA0C0F9B
:1009980006D152EA03353FF4FDAE1046194622E768
:1009A80050EA410618BF52EA43067FF4C5AE50EA42
:1009B80041047FF40DAF52EA43057FF4EBAE12E732
:1009C8004FF0FF3C06E000BF4FF0010C02E000BF13
:1009D8004FF0010C4DF804CD4FEA410C7FEA6C5CF6
:1009E8004FEA430C18BF7FEA6C5C1BD001B050EA99
:1009F800410C0CBF52EA430C91EA030F02BF90EA84
:100A0800020F0020704710F1000F91EA030F58BF42
:100A1800994208BF90422CBFD8176FEAE37040F0A4
:100A2800010070474FEA410C7FEA6C5C02D150EA42
:100A3800013C07D14FEA430C7FEA6C5CD6D152EAFD
:100A4800033CD3D05DF8040B704700BF84461046C2
:100A580062468C461946634600E000BF01B5FFF7C1
:100A6800B7FF002848BF10F1000F01BD4DF808ED91
:100A7800FFF7F4FF0CBF012000205DF808FB00BF62
:100A88004DF808EDFFF7EAFF34BF012000205DF8BC
:100A980008FB00BF4DF808EDFFF7E0FF94BF012009
:100AA80000205DF808FB00BF4DF808EDFFF7CEFF0A
:100AB80094BF012000205DF808FB00BF4DF808ED49
:100AC800FFF7C4FF34BF012000205DF808FB00BF1A
:100AD8004FEA410212F5001215D211D56FF478735E
:100AE800B3EB625212D94FEAC12343F0004343EA01
:100AF800505311F0004F23FA02F018BF40427047DC
:100B08004FF00000704750EA013005D111F0004065
:100B180008BF6FF0004070474FF00000704700BFFB
:100B280080B400AF1F4B1F4AD2F8882042F47002ED
:100B3800C3F888201C4B1C4A126842F001021A6054
:100B4800194A194B5968194B0B405360164A164BF2
:100B58001B6823F0847323F480331360124B124A0A
:100B6800126822F480221A600F4B0F4A526822F44E
:100B7800FE025A600C4B0C4AD26A22F00F02DA626B
:100B8800094A094B196B0A4B0B401363064B0022A9
:100B98009A60044B4FF000629A60BD465DF8047B92
:100BA800704700BF00ED00E0001002400CC07FF865
:100BB800CCFC00FF80B500AF084B084A126842F031
:100BC80010021A60032000F0CDFC002000F008F8A5
:100BD80002F050FB0023184680BD00BF00200240F1
:100BE80080B582B000AF7860094B1A68094BA3FB47
:100BF80002139B09184600F0DBFC4FF0FF307968C0
:100C0800002200F0B9FC002318460837BD4680BD15
:100C180000000020D34D621080B400AF044B1B6865
:100C28005A1C034B1A60BD465DF8047B704700BF31
:100C3800C800002080B400AF034B1B681846BD46AF
:100C48005DF8047B704700BFC800002080B584B001
:100C580000AF7860FFF7EEFFF86000BFFFF7EAFF2C
:100C68000246FB68D21A7B689A42F7D31037BD4612
:100C780080BD00BF80B584B000AF78600023FB6002
:100C88000023BB607B68002B01D1012312E17B6844
:100C980093F83930DBB2002B06D17B68002283F849
:100CA8003820786802F028FB7B68022283F8392014
:100CB8007B681B687A681268126822F002021A6060
:100CC8007B681B687A681268126842F001021A6031
:100CD800FFF7B0FFB86010E0FFF7ACFF0246BB6853
:100CE800D31A0A2B09D97B68032283F839207B6839
:100CF800002283F838200323DCE07B681B685B68EC
:100D080003F00103002BE7D07B681B685B6803F0E6
:100D18000103002B00F0BD807B689B69012B08D183
:100D28007B681B687A681268126842F080021A6051
:100D380007E07B681B687A681268126822F08002F4
:100D48001A607B68DB69012B08D17B681B687A68AD
:100D58001268126842F040021A6007E07B681B685C
:100D68007A681268126822F040021A607B681B6A6F
:100D7800012B08D17B681B687A681268126842F0F8
:100D880020021A6007E07B681B687A68126812689C
:100D980022F020021A607B685B6A012B08D17B680D
:100DA8001B687A681268126842F010021A6007E03D
:100DB8007B681B687A681268126822F010021A6051
:100DC8007B689B6A012B08D17B681B687A6812686C
:100DD800126842F008021A6007E07B681B687A68AC
:100DE8001268126822F008021A607B68DB6A012B1D
:100DF80008D17B681B687A681268126842F004029E
:100E08001A6007E07B681B687A681268126822F02B
:100E180004021A607B681B687A6891687A68D268ED
:100E280011437A68126911437A68526911437A68E2
:100E38005268013A0A43DA617B681B687A6812686B
:100E4800126822F001021A60FFF7F4FEB86010E0A1
:100E5800FFF7F0FE0246BB68D31A0A2B09D97B6854
:100E6800032283F839207B68002283F83820032383
:100E780020E07B681B685B6803F00103002BE7D167
:100E88007B681B685B6803F00103002B01D1012319
:100E9800FB60FB68012B08D17B680022DA637B6862
:100EA800012283F83920002304E07B68042283F8B8
:100EB8003920012318461037BD4680BD80B584B05F
:100EC80000AF786039600423FB600023BB607B6857
:100ED80093F83830012B01D102234FE17B680122BE
:100EE80083F838207B6893F83930DBB2222B04D1A1
:100EF8007B68322283F8392003E07B68122283F86A
:100F080039207B681B689B6803F08063002B02D044
:100F18000023FB6012E07B681B689B6803F000639A
:100F2800002B02D00123FB6008E07B681B689B68EC
:100F380003F08053002B01D00223FB60FB68042BD5
:100F480000F013817B6819687B681A68FB6818339E
:100F58001B0113441B6803F00102FB6818331B01D3
:100F68000B441A607B681B6B9B68002B17D17B684E
:100F780019687B681A68FB6818331B0113441A68E0
:100F88007B681B6B1B6858057B681B6BDB6803431E
:100F98001A43FB6818331B010B441A601AE07B687C
:100FA80019687B681A68FB6818331B0113441A68B0
:100FB8007B681B6B5B68D8007B681B6B9B6818435E
:100FC8007B681B6BDB6803431A43FB6818331B0100
:100FD8000B441A607B681B6B7A68126B126902F00B
:100FE8000F021A617B6819687B681A68FB681833F6
:100FF8001B0113445B6823F00F02FB6818331B01C5
:101008000B445A607B6819687B681A68FB68183358
:101018001B0113445A687B681B6B1B691A43FB68E6
:1010280018331B010B445A607B6819687B681B6B7B
:10103800DB7D1A067B681B6B9B7D1B041A437B6850
:101048001B6B5B7D1B021A437B681B6B1B7D1A4362
:10105800FB681B010B4403F5C4731A607B681968AD
:101068007B681B6BDB7E1A067B681B6B9B7E1B04F5
:101078001A437B681B6B5B7E1B021A437B681B6BE6
:101088001B7E1A43FB681B010B4403F5C4735A60AB
:101098007B6819687B681A68FB6818331B0113445E
:1010A8001B6843F00102FB6818331B010B441A60EC
:1010B800FFF7C0FDB86018E03B68B3F1FF3F14D0FC
:1010C8003B68002B07D0FFF7B5FD0246BB68D21A74
:1010D8003B689A4209D97B68032283F839207B68E8
:1010E800002283F83820032348E0FB68002B0BD14B
:1010F8007B681B689A68234B1340224A93420CBFB3
:1011080000230123DBB219E0FB68012B0BD17B68BC
:101118001B689A681C4B13401B4A93420CBF002360
:101128000123DBB20AE07B681B689A68174B1340FF
:10113800164A93420CBF00230123DBB2002BBBD11C
:101148007B6893F83930DBB2322B04D17B682222DA
:1011580083F8392003E07B68012283F839207B6813
:10116800002283F83820002308E07B68042283F8F3
:1011780039207B68002283F838200123184610376D
:10118800BD4680BD030000040003000800000310F2
:1011980080B586B000AFF8600B467A60FB7200231A
:1011A8007B61FB6893F83830012B01D1022325E1DC
:1011B800FB68012283F83820FB6893F83930DBB2EA
:1011C800122B04D1FB68322283F8392003E0FB6834
:1011D800222283F83920FFF72DFD786118E07B681B
:1011E800B3F1FF3F14D07B68002B07D0FFF722FD37
:1011F80002467B69D21A7B689A4209D9FB680322A6
:1012080083F83920FB68002283F838200323F5E0AF
:10121800FB7A002B0BD1FB681B68DB68DBB203F0A1
:101228000303002B14BF00230123DBB20AE0FB6891
:101238001B681B69DBB203F00303002B14BF0023F8
:101248000123DBB2002BCAD1FB685B6BFA6811681B
:10125800FA7A1B3212010A44126802F004029A60F8
:10126800FB685B6B9B68002B0BD1FB685B6BFA68B8
:101278001168FA7A1B3212010A441268520D1A6078
:101288000AE0FB685B6BFA681168FA7A1B32120194
:101298000A441268D2085A60FB685B6BFA681168E6
:1012A800FA7A1B3212010A44126802F00202DA606A
:1012B800FB685B6BFA681168FA7A1B3212010A4400
:1012C800526802F00F021A61FB685B6BFA681168DA
:1012D800FA7A1B3212010A445268120AD2B2DA614F
:1012E800FB685B6BFA681168FA7A12010A4402F526
:1012F800DC721268D2B21A75FB685B6BFA68116807
:10130800FA7A12010A4402F5DC721268120AD2B2A1
:101318005A75FB685B6BFA681168FA7A12010A441D
:1013280002F5DC721268120CD2B29A75FB685B6B1C
:10133800FA681168FA7A12010A4402F5DC72126836
:10134800120ED2B2DA75FB685B6BFA681168FA7A2A
:1013580012010A4402F5DC725268D2B21A76FB68AE
:101368005B6BFA681168FA7A12010A4402F5DC72BA
:101378005268120AD2B25A76FB685B6BFA68116837
:10138800FA7A12010A4402F5DC725268120CD2B2DF
:101398009A76FB685B6BFA681168FA7A12010A445C
:1013A80002F5DC725268120ED2B2DA76FB7A002BA2
:1013B80008D1FB681B68FA681268D26842F02002FC
:1013C800DA6007E0FB681B68FA681268126942F085
:1013D80020021A61FB6893F83930DBB2322B04D152
:1013E800FB68122283F8392003E0FB68012283F8A6
:1013F8003920FB68002283F8382000231846183764
:10140800BD4680BD80B485B000AF78607B6803F0CE
:101418000703FB600C4BDB68BB60BA684FF6FF0341
:101428001340BB60FB681A02BB68134343F0BF63F9
:1014380043F40033BB60044BBA68DA601437BD4626
:101448005DF8047B704700BF00ED00E080B400AF9A
:10145800044BDB6803F4E0631B0A1846BD465DF8DD
:10146800047B704700ED00E080B483B000AF034612
:101478003960FB7197F90730002B0BDA0D49FB79BE
:1014880003F00F03043B3A68D2B21201D2B20B4404
:101498001A7609E0084997F907303A68D2B212017A
:1014A800D2B20B4483F800230C37BD465DF8047BA9
:1014B800704700BF00ED00E000E100E080B489B0B3
:1014C80000AFF860B9607A60FB6803F00703FB615E
:1014D800FB69C3F10703042B28BF0423BB61FB6925
:1014E8000433062B02D9FB69033B00E000237B6130
:1014F800BB69012202FA03F35A1EBB681A407B69D2
:101508009A407B69012101FA03F3591E7B680B405D
:10151800134318462437BD465DF8047B704700BF67
:1015280080B582B000AF78607B68013BB3F1807F03
:1015380001D301230FE00A4B7A68013A5A604FF051
:10154800FF300F21FFF790FF054B00229A60044BF4
:1015580007221A60002318460837BD4680BD00BF21
:1015680010E000E080B582B000AF78607868FFF7DF
:1015780049FF0837BD4680BD80B586B000AF034639
:10158800B9607A60FB7300237B61FFF75FFF7861C6
:101598007869B9687A68FFF791FF034697F90F20D1
:1015A80010461946FFF760FF1837BD4680BD00BFDB
:1015B80080B582B000AF78607868FFF7B1FF034666
:1015C80018460837BD4680BD80B483B000AF786048
:1015D8007B68042B06D1094B084A126842F00402C2
:1015E8001A6005E0054B054A126822F004021A60E9
:1015F8000C37BD465DF8047B704700BF10E000E083
:1016080080B500AF00F002F880BD00BF80B400AF25
:10161800BD465DF8047B704780B487B000AF786042
:10162800396000237B610023FB6000233B6154E1A8
:101638003B681A687B69012101FA03F31340FB60D8
:10164800FB68002B00F046813B685B68022B03D0E7
:101658003B685B68122B23D17B69DA087B68083208
:1016680053F822303B617B6903F007039B000F228C
:1016780002FA03F3DB433A6913403B613B681A699A
:101688007B6903F007039B0002FA03F33A691343EB
:101698003B617B69DA087B680832396943F82210B4
:1016A8007B681B683B617B695B00032202FA03F3DA
:1016B800DB433A6913403B613B685B6803F0030214
:1016C8007B695B0002FA03F33A6913433B617B6869
:1016D8003A691A603B685B68012B0BD03B685B6812
:1016E800022B07D03B685B68112B03D03B685B6813
:1016F800122B30D17B689B683B617B695B000322BE
:1017080002FA03F3DB433A6913403B613B68DA684A
:101718007B695B0002FA03F33A6913433B617B6818
:101728003A699A607B685B683B617B69012202FACF
:1017380003F3DB433A6913403B613B685B6803F0A2
:1017480010031A097B6902FA03F33A6913433B61F0
:101758007B683A695A607B68DB683B617B695B0040
:10176800032202FA03F3DB433A6913403B613B6807
:101778009A687B695B0002FA03F33A6913433B6199
:101788007B683A69DA603B685B6803F08053002B3A
:1017980000F0A080574B574A926942F001029A61C3
:1017A800544B9B6903F00103BB60BB68524B7A69D9
:1017B8009208023253F822303B617B6903F003033D
:1017C8009B000F2202FA03F3DB433A6913403B61A3
:1017D8007B68B3F1904F19D07A68484B9A4213D07E
:1017E8007A68474B9A420DD07A68464B9A4207D09E
:1017F8007A68454B9A4201D1042308E0052306E0A4
:10180800032304E0022302E0012300E000237A69B5
:1018180002F00302920093403A6913433B61364B4E
:101828007A6992080232396943F82210374B1B68EB
:101838003B61FB68DB433A6913403B613B685B688B
:1018480003F48033002B03D03A69FB6813433B61F0
:101858002E4B3A691A602D4B5B683B61FB68DB4392
:101868003A6913403B613B685B6803F40033002B23
:1018780003D03A69FB6813433B61244B3A695A60C9
:10188800224B9B683B61FB68DB433A6913403B6131
:101898003B685B6803F48013002B03D03A69FB684C
:1018A80013433B61194B3A699A60184BDB683B61FB
:1018B800FB68DB433A6913403B613B685B6803F4B0
:1018C8000013002B03D03A69FB6813433B610F4BAD
:1018D8003A69DA607B6901337B613B681A687B6926
:1018E80022FA03F3002B7FF4A3AE1C37BD465DF844
:1018F800047B7047001002400000014000040048CB
:1019080000080048000C004800100048000401408E
:1019180080B483B000AF786013460A467A807B7043
:101928007B78002B03D07A887B689A6102E07A88FA
:101938007B689A620C37BD465DF8047B704700BF30
:1019480080B5ADF5007D00AF3B1D18600023C7F8DA
:10195800F8313B1D1B681B6803F00103002B00F0E6
:10196800C981AE4B5B6803F00C03042B0BD0AB4B67
:101978005B6803F00C03082B78D1A84B5B6803F471
:101988008033002B72D04FF40033C7F8F431D7F806
:10199800F43193FAA3F3C7F8F031D7F8F031B3FA7A
:1019A80083F3DBB243F02003DBB2DBB25B09DBB2CB
:1019B800012B02D1994B1B6835E04FF40033C7F86F
:1019C800EC31D7F8EC3193FAA3F3C7F8E831D7F83C
:1019D800E831B3FA83F3DBB243F02003DBB2DBB2C6
:1019E8005B09DBB2022B02D18C4B1B6A1BE04FF464
:1019F8000033C7F8E431D7F8E43193FAA3F3C7F812
:101A0800E031D7F8E031B3FA83F3DBB243F02003D7
:101A1800DBB2DBB25B09DBB2042B02D17F4B5B6824
:101A280001E07E4B5B6A4FF40032C7F8DC21D7F83F
:101A3800DC2192FAA2F2C7F8D821D7F8D821B2FA55
:101A480082F2D2B242F02002D2B2D2B202F01F0227
:101A5800D34003F00103002B07D03B1D1B685B68D4
:101A6800002B02D1012301F01EB843E13B1D1B6886
:101A78005B68B3F5803F06D1684B684A126842F448
:101A880080321A6030E03B1D1B685B68002B0CD16C
:101A9800624B624A126822F480321A605F4B5F4AD6
:101AA800126822F480221A601EE03B1D1B685B68E6
:101AB800B3F5A02F0CD1594B584A126842F4802232
:101AC8001A60564B554A126842F480321A600BE08D
:101AD800524B524A126822F480321A604F4B4F4AD6
:101AE800126822F480221A604C4B4C4AD26A22F0C7
:101AF8000F013A1D126892680A43DA623B1D1B689F
:101B08005B68002B7AD0FFF795F8C7F8F8010AE070
:101B1800FFF790F80246D7F8F831D31A642B02D9A8
:101B2800032300F0C0BF4FF40033C7F8D431D7F80F
:101B3800D43193FAA3F3C7F8D031D7F8D031B3FA38
:101B480083F3DBB243F02003DBB2DBB25B09DBB229
:101B5800012B02D1314B1B6835E04FF40033C7F835
:101B6800CC31D7F8CC3193FAA3F3C7F8C831D7F8FA
:101B7800C831B3FA83F3DBB243F02003DBB2DBB244
:101B88005B09DBB2022B02D1244B1B6A1BE04FF42A
:101B98000033C7F8C431D7F8C43193FAA3F3C7F8B0
:101BA800C031D7F8C031B3FA83F3DBB243F0200376
:101BB800DBB2DBB25B09DBB2042B02D1174B5B68EB
:101BC80001E0164B5B6A4FF40032C7F8BC21D7F826
:101BD800BC2192FAA2F2C7F8B821D7F8B821B2FA14
:101BE80082F2D2B242F02002D2B2D2B202F01F0286
:101BF800D34003F00103002B8AD07BE0FFF71AF8EB
:101C0800C7F8F8010CE0FFF715F80246D7F8F831E5
:101C1800D31A642B04D9032300F045BF00100240F7
:101C28004FF40033C7F8B431D7F8B43193FAA3F3BB
:101C3800C7F8B031D7F8B031B3FA83F3DBB243F069
:101C48002003DBB2DBB25B09DBB2012B02D1B64B5E
:101C58001B6835E04FF40033C7F8AC31D7F8AC3126
:101C680093FAA3F3C7F8A831D7F8A831B3FA83F3E6
:101C7800DBB243F02003DBB2DBB25B09DBB2022B41
:101C880002D1A94B1B6A1BE04FF40033C7F8A431FB
:101C9800D7F8A43193FAA3F3C7F8A031D7F8A03145
:101CA800B3FA83F3DBB243F02003DBB2DBB25B09A8
:101CB800DBB2042B02D19C4B5B6801E09A4B5B6A58
:101CC8004FF40032C7F89C21D7F89C2192FAA2F26F
:101CD800C7F89821D7F89821B2FA82F2D2B242F026
:101CE8002002D2B2D2B202F01F02D34003F00103A5
:101CF800002B88D13B1D1B681B6803F00203002BD7
:101D080000F0D381884B5B6803F00C03002B0DD0E7
:101D1800854B5B6803F00C03082B40F08F80824BE7
:101D28005B6803F48033002B40F088800223C7F8F7
:101D38009431D7F8943193FAA3F3C7F89031D7F8D0
:101D48009031B3FA83F3DBB243F02003DBB2DBB2AA
:101D58005B09DBB2012B02D1734B1B6833E0022312
:101D6800C7F88C31D7F88C3193FAA3F3C7F88831C8
:101D7800D7F88831B3FA83F3DBB243F02003DBB240
:101D8800DBB25B09DBB2022B02D1674B1B6A1AE09C
:101D98000223C7F88431D7F8843193FAA3F3C7F83C
:101DA8008031D7F88031B3FA83F3DBB243F02003F4
:101DB800DBB2DBB25B09DBB2042B02D15A4B5B68A6
:101DC80001E0594B5B6A0222C7F87C21D7F87C21D5
:101DD80092FAA2F2C7F87821D7F87821B2FA82F2FB
:101DE800D2B242F02002D2B2D2B202F01F02D340E5
:101DF80003F00103002B07D03B1D1B681B69012B57
:101E080002D0012300F04FBE474B474A126822F028
:101E1800F8013A1D12685069F822C7F87421D7F8FA
:101E2800742192FAA2F2C7F87021D7F87021B2FA99
:101E380082F200FA02F20A431A6036E13B1D1B687F
:101E48001B69002B00F0A7800123C7F86C31D7F875
:101E58006C3193FAA3F3C7F86831D7F86831B3FA4D
:101E680083F39B0003F1844303F5840301221A6082
:101E7800FEF7E0FEC7F8F8010AE0FEF7DBFE0246CF
:101E8800D7F8F831D31A022B02D9032300F00BBE7E
:101E98000223C7F86431D7F8643193FAA3F3C7F87B
:101EA8006031D7F86031B3FA83F3DBB243F0200333
:101EB800DBB2DBB25B09DBB2012B02D11A4B1B6828
:101EC80036E00223C7F85C31D7F85C3193FAA3F304
:101ED800C7F85831D7F85831B3FA83F3DBB243F077
:101EE8002003DBB2DBB25B09DBB2022B02D10E4B63
:101EF8001B6A1DE00223C7F85431D7F8543193FA0E
:101F0800A3F3C7F85031D7F85031B3FA83F3DBB2F3
:101F180043F02003DBB2DBB25B09DBB2042B05D153
:101F2800014B5B6804E000BF00100240C34B5B6AD2
:101F38000222C7F84C21D7F84C2192FAA2F2C7F82E
:101F48004821D7F84821B2FA82F2D2B242F02002F0
:101F5800D2B2D2B202F01F02D34003F00103002B29
:101F68008BD0B64BB54A126822F0F8013A1D1268B8
:101F78005069F822C7F84421D7F8442192FAA2F20E
:101F8800C7F84021D7F84021B2FA82F200FA02F2EB
:101F98000A431A6089E00123C7F83C31D7F83C317D
:101FA80093FAA3F3C7F83831D7F83831B3FA83F383
:101FB8009B0003F1844303F5840300221A60FEF7B3
:101FC80039FEC7F8F8010AE0FEF734FE0246D7F8F2
:101FD800F831D31A022B02D9032300F064BD02237F
:101FE800C7F83431D7F8343193FAA3F3C7F830314E
:101FF800D7F83031B3FA83F3DBB243F02003DBB216
:10200800DBB25B09DBB2012B02D18C4B1B6833E0DE
:102018000223C7F82C31D7F82C3193FAA3F3C7F869
:102028002831D7F82831B3FA83F3DBB243F0200321
:10203800DBB2DBB25B09DBB2022B02D17F4B1B6A3E
:102048001AE00223C7F82431D7F8243193FAA3F30E
:10205800C7F82031D7F82031B3FA83F3DBB243F065
:102068002003DBB2DBB25B09DBB2042B02D1734B7A
:102078005B6801E0714B5B6A0222C7F81C21D7F844
:102088001C2192FAA2F2C7F81821D7F81821B2FA3F
:1020980082F2D2B242F02002D2B2D2B202F01F02D1
:1020A800D34003F00103002B8ED13B1D1B681B6836
:1020B80003F00803002B00F03C813B1D1B689B6963
:1020C800002B00F094800123C7F81431D7F814319D
:1020D80093FAA3F3C7F81031D7F81031B3FA83F3A2
:1020E8009B001A46564B134401221A60FEF7A2FDC4
:1020F800C7F8F8010AE0FEF79DFD0246D7F8F83167
:10210800D31A022B02D9032300F0CDBC0223C7F84F
:102118000C31D7F80C3193FAA3F3C7F80831D7F884
:102128000831B3FA83F3DBB243F06003DBB2DBB20E
:102138005B09DBB2012B02D1404B1B6839E002235B
:10214800C7F80431D7F8043193FAA3F207F580737E
:102158001A6007F580731B68B3FA83F3DBB243F0A8
:102168006003DBB2DBB25B09DBB2022B02D1334B7B
:102178001B6A1EE007F1FC0302221A6007F1FC0348
:102188001B6893FAA3F207F1F8031A6007F1F80342
:102198001B68B3FA83F3DBB243F06003DBB2DBB254
:1021A8005B09DBB2042B02D1244B5B6801E0234BB3
:1021B8005B6A07F1F4020221116007F1F402126868
:1021C80092FAA2F107F1F002116007F1F002126829
:1021D800B2FA82F2D2B242F06002D2B2D2B202F0C5
:1021E8001F02D34003F00103002B84D0A1E007F1C4
:1021F800EC0301221A6007F1EC031B6893FAA3F2BF
:1022080007F1E8031A6007F1E8031B68B3FA83F3E0
:102218009B001A460A4B134400221A60FEF70AFD77
:10222800C7F8F8010EE0FEF705FD0246D7F8F831C9
:10223800D31A022B06D9032300F035BC0010024044
:102248008004424207F1E40302221A6007F1E40322
:102258001B6893FAA3F207F1E0031A6007F1E003A1
:102268001B68B3FA83F3DBB243F06003DBB2DBB283
:102278005B09DBB2012B02D1A54B1B683BE007F1E0
:10228800DC0302221A6007F1DC031B6893FAA3F24D
:1022980007F1D8031A6007F1D8031B68B3FA83F370
:1022A800DBB243F06003DBB2DBB25B09DBB2022BCB
:1022B80002D1974B1B6A1EE007F1D40302221A6071
:1022C80007F1D4031B6893FAA3F207F1D0031A604D
:1022D80007F1D0031B68B3FA83F3DBB243F0600362
:1022E800DBB2DBB25B09DBB2042B02D1884B5B6843
:1022F80001E0874B5B6A07F1CC020221116007F10C
:10230800CC02126892FAA2F107F1C802116007F133
:10231800C8021268B2FA82F2D2B242F06002D2B2B5
:10232800D2B202F01F02D34003F00103002B7FF466
:102338007AAF3B1D1B681B6803F00403002B00F0F9
:102348009E81002387F8FF31714BDB6903F08053CE
:10235800002B12D16E4B6E4AD26942F08052DA617C
:102368006B4BDB6903F0805207F10C031A6007F12D
:102378000C031B68012387F8FF31664B1B6803F4C5
:102388008073002B1AD1634B624A126842F4807240
:102398001A60FEF74FFCC7F8F80109E0FEF74AFC9F
:1023A8000246D7F8F831D31A642B01D903237AE30C
:1023B800584B1B6803F48073002BEFD03B1D1B6840
:1023C800DB68012B06D1524B514A126A42F00102D6
:1023D8001A622FE03B1D1B68DB68002B0CD14C4BAD
:1023E8004B4A126A22F001021A62494B484A126AA1
:1023F80022F004021A621DE03B1D1B68DB68052BF6
:102408000CD1434B424A126A42F004021A62404B12
:102418003F4A126A42F001021A620BE03C4B3C4A06
:10242800126A22F001021A62394B394A126A22F002
:1024380004021A623B1D1B68DB68002B00F08D80CC
:10244800FEF7F8FBC7F8F8010BE0FEF7F3FB0246CE
:10245800D7F8F831D21A41F288339A4201D90323C6
:1024680021E307F1C40302221A6007F1C4031B68C1
:1024780093FAA3F207F1C0031A6007F1C0031B68BF
:10248800B3FA83F3DBB243F04003DBB2DBB25B09A0
:10249800DBB2012B02D11E4B1B683FE007F1BC03E6
:1024A80002221A6007F1BC031B6893FAA3F207F132
:1024B800B8031A6007F1B8031B68B3FA83F3DBB2F9
:1024C80043F04003DBB2DBB25B09DBB2022B02D183
:1024D8000F4B1B6A22E007F1B40302221A6007F1CE
:1024E800B4031B6893FAA3F207F1B0031A6007F16B
:1024F800B0031B68B3FA83F3DBB243F04003DBB2EB
:10250800DBB25B09DBB2042B06D1014B5B6805E04B
:102518000010024000700040A34B5B6A07F1AC0258
:102528000221116007F1AC02126892FAA2F107F1D8
:10253800A802116007F1A8021268B2FA82F2D2B2B8
:1025480042F04002D2B2D2B202F01F02D34003F0EE
:102558000103002B3FF479AF87E0FEF76BFBC7F868
:10256800F8010BE0FEF766FB0246D7F8F831D21AFD
:1025780041F288339A4201D9032394E207F1A40374
:1025880002221A6007F1A4031B6893FAA3F207F169
:10259800A0031A6007F1A0031B68B3FA83F3DBB248
:1025A80043F04003DBB2DBB25B09DBB2012B02D1A3
:1025B8007D4B1B683BE007F19C0302221A6007F180
:1025C8009C031B6893FAA3F207F198031A6007F1BA
:1025D80098031B68B3FA83F3DBB243F04003DBB222
:1025E800DBB25B09DBB2022B02D16F4B1B6A1EE028
:1025F80007F1940302221A6007F194031B6893FA07
:10260800A3F207F190031A6007F190031B68B3FA6D
:1026180083F3DBB243F04003DBB2DBB25B09DBB22E
:10262800042B02D1604B5B6801E05F4B5B6A07F1EA
:102638008C020221116007F18C02126892FAA2F151
:1026480007F18802116007F188021268B2FA82F273
:10265800D2B242F04002D2B2D2B202F01F02D3404C
:1026680003F00103002B7FF47DAF97F8FF31012BB6
:1026780005D14D4B4C4AD26922F08052DA613B1D9C
:102688001B68DB69002B00F00D82474B5B6803F089
:102698000C03082B00F001823B1D1B68DB69022B31
:1026A80040F0578107F184034FF080721A6007F1F8
:1026B80084031B6893FAA3F207F180031A6007F1F9
:1026C80080031B68B3FA83F39B0003F1844303F58B
:1026D800840300221A60FEF7ADFAC7F8F80109E092
:1026E800FEF7A8FA0246D7F8F831D31A022B01D917
:1026F8000323D8E107F17C034FF000721A6007F159
:102708007C031B6893FAA3F207F178031A6007F1B8
:1027180078031B68B3FA83F3DBB243F02003DBB220
:10272800DBB25B09DBB2012B02D11F4B1B683FE018
:1027380007F174034FF000721A6007F174031B6805
:1027480093FAA3F207F170031A6007F170031B688C
:10275800B3FA83F3DBB243F02003DBB2DBB25B09ED
:10276800DBB2022B02D1104B1B6A21E007F16C038C
:102778004FF000721A6007F16C031B6893FAA3F21A
:1027880007F168031A6007F168031B68B3FA83F35B
:10279800DBB243F02003DBB2DBB25B09DBB2042B14
:1027A80004D1014B5B6803E000100240BC4B5B6A3C
:1027B80007F164024FF00071116007F164021268BA
:1027C80092FAA2F107F16002116007F16002126843
:1027D800B2FA82F2D2B242F02002D2B2D2B202F0FF
:1027E8001F02D34003F00103002B7FF479AFAC4BF9
:1027F800AB4A526822F474113A1D1268506A3A1DA5
:102808001268126A02430A435A6007F15C034FF0E8
:1028180080721A6007F15C031B6893FAA3F207F150
:1028280058031A6007F158031B68B3FA83F39B0037
:1028380003F1844303F5840301221A60FEF7FAF9D1
:10284800C7F8F80109E0FEF7F5F90246D7F8F831BC
:10285800D31A022B01D9032325E107F154034FF0C2
:1028680000721A6007F154031B6893FAA3F207F188
:1028780050031A6007F150031B68B3FA83F3DBB205
:1028880043F02003DBB2DBB25B09DBB2012B02D1E0
:10289800834B1B683DE007F14C034FF000721A6050
:1028A80007F14C031B6893FAA3F207F148031A6077
:1028B80007F148031B68B3FA83F3DBB243F0200344
:1028C800DBB2DBB25B09DBB2022B02D1744B1B6AB1
:1028D8001FE007F144034FF000721A6007F1440348
:1028E8001B6893FAA3F207F140031A6007F140034B
:1028F8001B68B3FA83F3DBB243F02003DBB2DBB22D
:102908005B09DBB2042B02D1654B5B6801E0644BC9
:102918005B6A07F13C024FF00071116007F13C025D
:10292800126892FAA2F107F13802116007F1380231
:102938001268B2FA82F2D2B242F02002D2B2D2B215
:1029480002F01F02D34003F00103002B3FF47BAFDA
:10295800A8E007F134034FF080721A6007F13403DE
:102968001B6893FAA3F207F130031A6007F13003EA
:102978001B68B3FA83F39B0003F1844303F58403D4
:1029880000221A60FEF756F9C7F8F80109E0FEF7C9
:1029980051F90246D7F8F831D31A022B01D903238B
:1029A80081E007F12C034FF000721A6007F12C0345
:1029B8001B6893FAA3F207F128031A6007F12803AA
:1029C8001B68B3FA83F3DBB243F02003DBB2DBB25C
:1029D8005B09DBB2012B02D1314B1B683DE007F1EB
:1029E80024034FF000721A6007F124031B6893FA5E
:1029F800A3F207F120031A6007F120031B68B3FA5A
:102A080083F3DBB243F02003DBB2DBB25B09DBB25A
:102A1800022B02D1224B1B6A1FE007F11C034FF067
:102A280000721A6007F11C031B6893FAA3F207F1FE
:102A380018031A6007F118031B68B3FA83F3DBB2B3
:102A480043F02003DBB2DBB25B09DBB2042B02D11B
:102A5800134B5B6801E0124B5B6A07F114024FF0FD
:102A68000071116007F11402126892FAA2F107F1DD
:102A78001002116007F110021268B2FA82F2D2B2A3
:102A880042F02002D2B2D2B202F01F02D34003F0C9
:102A98000103002B7FF47BAF04E0012303E000BFB8
:102AA800001002400023184607F50077BD4680BD98
:102AB80080B59EB000AF7860396000237B67A34B78
:102AC8001B6803F007023B689A4210D29F4B9F4A4B
:102AD800126822F007013A680A431A609B4B1B6888
:102AE80003F007023B689A4201D00123D0E17B68DA
:102AF8001B6803F00203002B08D0954B944A5268D8
:102B080022F0F0017A6892680A435A607B681B6871
:102B180003F00103002B00F069817B685B68012BDF
:102B28005CD14FF400333B673B6F93FAA3F3FB662A
:102B3800FB6EB3FA83F3DBB243F02003DBB2DBB204
:102B48005B09DBB2012B02D1814B1B682DE04FF4EE
:102B58000033BB66BB6E93FAA3F37B667B6EB3FA56
:102B680083F3DBB243F02003DBB2DBB25B09DBB2F9
:102B7800022B02D1764B1B6A17E04FF400333B66F9
:102B88003B6E93FAA3F3FB65FB6DB3FA83F3DBB2F9
:102B980043F02003DBB2DBB25B09DBB2042B02D1CA
:102BA8006B4B5B6801E06A4B5B6A4FF40032BA65B5
:102BB800BA6D92FAA2F27A657A6DB2FA82F2D2B25C
:102BC80042F02002D2B2D2B202F01F02D34003F088
:102BD8000103002B40F0BE80012359E17B685B684C
:102BE800022B5BD14FF000733B653B6D93FAA3F367
:102BF800FB64FB6CB3FA83F3DBB243F02003DBB274
:102C0800DBB25B09DBB2012B02D1514B1B682DE013
:102C18004FF00073BB64BB6C93FAA3F37B647B6CCB
:102C2800B3FA83F3DBB243F02003DBB2DBB25B0918
:102C3800DBB2022B02D1464B1B6A17E04FF0007340
:102C48003B643B6C93FAA3F3FB63FB6BB3FA83F32C
:102C5800DBB243F02003DBB2DBB25B09DBB2042B4F
:102C680002D13B4B5B6801E0394B5B6A4FF0007265
:102C7800BA63BA6B92FAA2F27A637A6BB2FA82F208
:102C8800D2B242F02002D2B2D2B202F01F02D34036
:102C980003F00103002B5DD10123F9E002233B631C
:102CA8003B6B93FAA3F3FB62FB6AB3FA83F3DBB2E1
:102CB80043F02003DBB2DBB25B09DBB2012B02D1AC
:102CC800234B1B682BE00223BB62BB6A93FAA3F376
:102CD8007B627B6AB3FA83F3DBB243F02003DBB297
:102CE800DBB25B09DBB2022B02D1194B1B6A16E07F
:102CF80002233B623B6A93FAA3F3FB61FB69B3FAD5
:102D080083F3DBB243F02003DBB2DBB25B09DBB257
:102D1800042B02D10E4B5B6801E00D4B5B6A02226B
:102D2800BA61BA6992FAA2F27A617A69B2FA82F25F
:102D3800D2B242F02002D2B2D2B202F01F02D34085
:102D480003F00103002B05D10123A1E0002002407C
:102D580000100240504B504A526822F003017A6832
:102D680052680A435A60FDF765FF78677B685B68BD
:102D7800012B12D10AE0FDF75DFF02467B6FD21AE4
:102D880041F288339A4201D9032381E0424B5B68C0
:102D980003F00C03042BEED128E07B685B68022B60
:102DA80012D10AE0FDF746FF02467B6FD21A41F2C4
:102DB80088339A4201D903236AE0374B5B6803F0F2
:102DC8000C03082BEED111E00AE0FDF733FF0246B1
:102DD8007B6FD21A41F288339A4201D9032357E014
:102DE8002D4B5B6803F00C03002BEED12B4B1B68BB
:102DF80003F007023B689A4210D9284B274A126809
:102E080022F007013A680A431A60244B1B6803F052
:102E180007023B689A4201D0012339E07B681B68AE
:102E280003F00403002B08D01B4B1B4A526822F402
:102E3800E0617A68D2680A435A607B681B6803F0CD
:102E48000803002B09D0144B134A526822F460512E
:102E58007A681269D2000A435A6000F025F80246DF
:102E68000D4B5B6803F0F001F0233B613B6993FA7B
:102E7800A3F3FB60FB68B3FA83F321FA03F3084971
:102E8800CB5CDA40074B1A600020FDF7A9FE00234F
:102E980018467837BD4680BD001002400020024029
:102EA800584E00080000002080B48BB000AF00230B
:102EB800FB610023BB6100237B6200237B6100234D
:102EC8003B62294B5B68FB61FB6903F00C03042B35
:102ED80002D0082B03D03CE0244B3B623CE0FB696A
:102EE80003F470124FF470133B613B6993FAA3F338
:102EF800FB60FB68B3FA83F322FA03F31C4AD35C42
:102F08007B61194BDB6A03F00F020F23BB60BB68C0
:102F180093FAA3F37B607B68B3FA83F322FA03F393
:102F2800144AD35CBB61FB6903F48033002B08D0DF
:102F38000E4ABB69B2FBF3F37A6902FB03F37B62C7
:102F480004E07B690C4A02FB03F37B627B6A3B6209
:102F580002E0064B3B6200BF3B6A18462C37BD4671
:102F68005DF8047B704700BF0010024000127A0031
:102F7800684E0008784E000800093D0080B400AF94
:102F8800034B1B681846BD465DF8047B704700BFBD
:102F98000000002080B592B000AFFDF70BFE00F0F6
:102FA80051F800F0CBF800F095F840F20163BB62ED
:102FB8000023BB6300233B6300237B63402387F824
:102FC8003C30F62387F83D30602387F83E300123F4
:102FD80087F83F30002387F84030002387F84130D6
:102FE800002387F84230002387F84330144B07F159
:102FF80028021A6312484FF47A71FDF75FFF0346FF
:1030080087F8473001237B620E233B6240F28153ED
:103018007B6000237B6100233B610023FB60084B3E
:103028003A1D5A63064801216422FEF7B1F80346A7
:1030380087F847304FF47A70FDF708FEB5E700BF10
:10304800CC00002080B590B000AF0223BB61012303
:10305800BB621023FB6202237B630023BB634FF434
:103068002013FB6307F118031846FEF769FC0346B3
:10307800002B01D000F0FAF80F237B600223BB601D
:103088000023FB604FF480633B6100237B613B1DA1
:1030980018460121FFF70CFD0346002B01D000F074
:1030A800E5F8FFF76BFF0246094BA3FB02139B09E8
:1030B8001846FEF77DFA0420FEF786FA4FF0FF3037
:1030C80000210022FEF758FA4037BD4680BD00BFF8
:1030D800D34D621080B500AF164B174A1A60154BD6
:1030E80030225A60134B00229A60124B0022DA6099
:1030F800104B00221A610F4B00225A610D4B00221F
:103108009A610C4B0022DA610A4B00221A62094BC1
:1031180000225A62074B00229A62064B0022DA62AA
:103128000448FDF7A7FD0346002B01D000F09EF8E8
:1031380080BD00BFCC0000200064004080B58CB08A
:1031480000AF474B464A526942F400225A61444B49
:103158005B6903F40023BB61BB69414B404A526978
:1031680042F480025A613E4B5B6903F480037B6141
:103178007B693B4B3A4A526942F400325A61384BF8
:103188005B6903F400333B613B69354B344A526950
:1031980042F400125A61324B5B6903F40013FB607E
:1031A800FB682F4B2E4A526942F480125A612C4B0D
:1031B8005B6903F48013BB60BB68294B284A5269DA
:1031C80042F480225A61264B5B6903F480237B60BA
:1031D8007B680123FB6100233B6200237B6207F1CC
:1031E8001C034FF090401946FEF716FA4FF47F4340
:1031F800FB6101233B6200237B620023BB6207F172
:103208001C0318481946FEF707FA4FF4C053FB6130
:1032180002233B6200237B620323BB620E23FB6213
:1032280007F11C034FF090401946FEF7F5F9C0234B
:10323800FB6112233B6201237B620023BB620423F0
:10324800FB6207F11C0308481946FEF7E5F9054833
:103258004FF47F410022FEF75BFB3037BD4680BD4F
:1032680000100240001000480004004880B400AF7D
:10327800FEE700BF80B582B000AF1E4B1D4A9269C1
:1032880042F001029A611B4B9B6903F001037B60CA
:103298007B680720FEF766F96FF00B00002100221B
:1032A800FEF76AF96FF00A0000210022FEF764F9C0
:1032B8006FF0090000210022FEF75EF96FF00400AC
:1032C80000210022FEF758F96FF0030000210022C8
:1032D800FEF752F96FF0010000210022FEF74CF9C9
:1032E8004FF0FF3000210022FEF746F90837BD46AF
:1032F80080BD00BF0010024080B588B000AF786084
:103308007B681A68104B9A421BD1104B0F4AD2693E
:1033180042F00072DA610D4BDB6903F00073BB60A9
:10332800BB680323FB6002233B6100237B6103230B
:10333800BB610723FB6107F10C0305481946FEF73B
:103348006BF92037BD4680BD006400400010024084
:10335800000C004880B500AFFDF75EFCFEF750F9A1
:1033680080BD00BFDFF834D0002103E00C4B5B5870
:10337800435004310B480C4B42189A42F6D30B4A7F
:1033880002E0002342F8043B094B9A42F9D3FDF7C7
:10339800C7FB00F011F8FFF7FDFDFEE700A00020D5
:1033A8001C50000800000020A0000020A000002001
:1033B80010010020FEE7000070B50E4B0E4DED1A0F
:1033C800AD1000241E46AC4204D056F82420904785
:1033D8000134F8E701F030FD084D094BED1AAD1046
:1033E80000241E46AC4204D056F8242090470134ED
:1033F800F8E770BD14500008145000081850000871
:103408001450000802440346934202D003F8011BFB
:10341800FAE770472DE9F04788B0002B14461D469F
:10342800109E1299139F05DA05F100431D461446B4
:103438002D2300E000230B70149B23F0200ABAF11F
:10344800460F04D0BAF1450F03D1013601E003233A
:1034580000E002238DE8C80006AB039307AB049392
:1034680022462B4600F0A4FBBAF1470F804602D152
:10347800119BDB0725D5BAF1460F08EB06090FD1DA
:1034880098F80030302B09D1204629460022002325
:10349800FDF7ECFA10B9C6F101063E603B689944A5
:1034A8002046294600220023FDF7E0FA08B1CDF8AE
:1034B8001C90079B4B4504D25A1C079230221A7065
:1034C800F7E7079BC8EB0302159B40461A6008B054
:1034D800BDE8F087034673B5002903F8022B03DA29
:1034E80049421A462D2401E01A462B240929447022
:1034F8001ADD0DF106040A2691FBF6F506FB1511F7
:103508003031092D234604F801192946F3DC05F169
:10351800300103F8011D0DF107018B420AD213F89F
:10352800011B02F8011BF6E730241A46214402F871
:10353800024B5970101A02B070BD00002DE9F04F0F
:103548008FB00C4616461F46DDF86090054601F020
:10355800E7F8D0F800A0504600F092FA00230C9348
:10356800D9F800300990073323F00703D3E90001A5
:1035780003F1080294F81880C9F80020C4E9120180
:1035880000F05CFA0128D4E9120117D100220023C7
:10359800FDF776FA10B12D2384F84330904B914A09
:1035A800B8F1470F8CBF91469946032323612368DE
:1035B80023F0040323604FF0000B86E000F03EFA8E
:1035C800236848B9884A8949B8F1470F8CBF8946AA
:1035D800914603222261EBE76268511C28F0200B18
:1035E80001D1062204E0BBF1470F02D10AB901223A
:1035F80062606068CDF8108043F480618DE8030054
:103608000DF12B0002900BA803900CA80590002048
:1036180021600690D4E912232846FFF7FBFEBBF190
:10362800470F81460B9909D1C81C02DB6368994290
:1036380030DDA8F102085FFA88F802E0B8F1650FFA
:1036480012D80139424604F150000B91FFF742FFAE
:103658000C9A8318012A8346236102DC2268D20768
:103668002DD5013323612AE0B8F1660F14D1002962
:10367800636807DD216113B92268D0071CD50133BF
:103688000B4418E013B92268D20701D5023312E0BF
:10369800012310E04FF067080C9A914205DB23687C
:1036A8002161D80708D54B1C05E00029D4BFC1F11A
:1036B8000203012313442361A1654FF0000B9DF819
:1036C8002B3013B12D2384F8433000972846214628
:1036D8000DAA334600F040F9013002D14FF0FF3017
:1036E80036E123685A0504D4284631464A462369F8
:1036F80008E1B8F1650F40F2CB80D4E9120100224D
:103708000023FDF7B3F900282AD028463146384A65
:103718000123B8470130E1D00C9B0B9A9A4207DB92
:103728002368D80704D423689B0700F1F880FDE0DC
:10373800284631465246099BB8470130CED04FF053
:1037480000080C9B013B9845EDDA2846314604F108
:103758001A020123B8470130C0D008F10108F0E788
:103768000B9B002B28DC28463146214A0123B84709
:103778000130B3D00B9B23B90C9B13B92368D9072D
:10378800D1D5284631465246099BB8470130A5D0C5
:103798004FF000080B9B5B4298452846314608DAF3
:1037A80004F11A020123B847013097D008F1010843
:1037B800F0E74A460C9BA5E0A36D0C9A9A42B4BF69
:1037C80093469B46BBF1000F02DC4FF000081CE05B
:1037D800284631464A465B46B8470130F5D17DE771
:1037E8008A4E00088E4E0008924E0008964E000839
:1037F8009A4E00082846314604F11A020123B847B8
:1038080001303FF46BAF08F10108A36D2BEAEB72AE
:103818009A1A9045EEDB09EB03080B9A0C9B9A4227
:103828000FDB2368DA070CD40C9B0B9A9944C8EB7E
:1038380009099B1A9945A8BF9946B9F1000F08DCF8
:103848000FE0284631465246099BB8470130EBD174
:1038580044E72846314642464B46B84701303FF4D4
:103868003DAF4FF000080AE02846314604F11A023D
:103878000123B84701303FF431AF08F101080B9B31
:103888000C9A29EAE971D31A5B1A9845ECDB4AE7E6
:103898000C9A012A01DCDB0739D5284631464A460D
:1038A8000123B84701303FF419AF28463146524644
:1038B800099BB84701303FF411AFD4E91201002247
:1038C8000023FDF7D3F810B14FF0000811E00C9B6E
:1038D8002846314609F10102013B1CE028463146E1
:1038E80004F11A020123B84701303FF4F7AE08F19A
:1038F80001080C9B013B9845F0DB2846314604F152
:1039080050025B46B84701307FF40DAFE6E6284623
:1039180031464A460123B8470130EED1DEE64FF082
:103928000008E2680D9BD31A984505DBE0680D9BFB
:103938009842B8BF18460BE02846314604F11902F0
:103948000123B84701303FF4C9AE08F10108E8E7A0
:103958000FB0BDE8F08F00BF2DE9F84315461F46AC
:103968008A680B69DDF820809A42A8BF13462B604D
:1039780091F8432006460C460AB101332B602368B0
:10398800990602D52B6802332B60236813F00609C9
:103998001DD094F843302268003318BF01239206E3
:1039A8001FD5E1185A1C302081F84300224494F8AE
:1039B800451082F84310023313E03046394604F1CB
:1039C80019020123C047013007D009F10109E26853
:1039D8002B68D31A9945F0DBDBE74FF0FF30BDE8E1
:1039E800F8833046394604F14302C0470130F4D029
:1039F80023682A68E16803F00603042B08BFC2EBBA
:103A080001052369A2680CBF25EAE57500259A42DD
:103A1800C4BFC3EB0203ED184FF00009A9450ADA49
:103A28003046394604F11A020123C0470130D4D088
:103A380009F10109F2E70020BDE8F88331F00043FD
:103A480010B500D178B10C4AA3F5801494420CD972
:103A5800B3F5801F0BD3094A93420AD1D0F1010074
:103A680038BF002010BD022010BD042010BD032067
:103A780010BD002010BD00BFFFFFDF7F0000F07FFA
:103A8800034613F8012B002AFBD1181A0138704796
:103A98002DE9F74F03690C69A3428046C0F2818083
:103AA800013C01F11407A20000F1140591460092AF
:103AB80057F824602A44019255F824200136B2FBB5
:103AC800F6F6B944002E3AD04FF0000E3A46284692
:103AD800F34652F804CB03681FFA8CFA4FEA1C4CE1
:103AE8000AFB06EA0CFB06FC0CEB1A4C1FFA8AFAD6
:103AF800CAEB0B0A4FEA1C4E1FFA8CFC1AFA83FA1F
:103B0800CCEB134C0CEB2A4C1FFA8AFA4AEA0C4A03
:103B18004A454FEA2C4B40F804ABDAD9009AAB5827
:103B28006BB9019A131FAB421A4602D8C8F8104065
:103B380005E01268043B002AF8D1013CF3E740464F
:103B480001F019F800282ADB01362B46002057F827
:103B580004CB1A681FFA8CF1411A4FEA1C4C11FA6F
:103B680082F1CCEB124202EB214289B210144F458C
:103B780041EA024243F8042BE9D955F8242005EB21
:103B8800840362B9043BAB421A4602D8C8F8104015
:103B980005E01268043B002AF8D1013CF3E73046FF
:103BA80000E0002003B0BDE8F08F00000000000036
:103BB8002DE9F04F456A9BB08246279CCDE9042346
:103BC80045B9102000F0B0FDCAF8240045608560B2
:103BD8000560C560DAF82430196861B15B684B602C
:103BE800012202FA03F38B60504600F0E3FDDAF895
:103BF800243000221A600599002905DA012321F0F2
:103C080000422360059201E000232360059F9C4A3F
:103C180027F000431B0D1B0593421DD12699049ADA
:103C280042F20F730B6042B9964B974AC7F31300E1
:103C380000280CBF1046184600E09248289F002F25
:103C480000F06885C37813B100F1080300E0C31CD5
:103C5800289F3B6000F05EBDDDE904450022204658
:103C680029460023FCF702FF804658B1269F01230E
:103C78003B60289F002F00F04A858448386001384F
:103C880000F048BD19AB009318AB0193504622468B
:103C98002B4600F0EBFFC7F30A5683465EB1C5F327
:103CA800130343F07F51204641F44011A6F2FF363A
:103CB800CDF854801CE0199B189E1E446FF4826353
:103CC8009E4209DB04991F3306F212409B1B21FA1E
:103CD80000F09F40384304E06D48049A801B02FAC4
:103CE80000F0FCF7E5FB0127A1F1F871013E1597FB
:103CF8000022684BFCF79EFA5BA3D3E90023FCF78C
:103D08004DFC5BA3D3E90023FCF796FA0446304642
:103D18000D46FCF7DDFB58A3D3E90023FCF73EFC76
:103D280002460B4620462946FCF786FA04460D460D
:103D3800FCF7CEFE29468146002220460023FCF7E8
:103D48009FFE58B14846FCF7C3FB02460B46204687
:103D58002946FCF78BFE08B909F1FF39B9F1160FAE
:103D68000DD84D4B03EBC903D3E90001DDE904236A
:103D7800FCF7A4FE30B109F1FF39002700E0012764
:103D8800149700E01490189B9E1B013E099604D5D9
:103D9800774208970027099701E000270897B9F1AB
:103DA800000F07DB099FCDF844904F44099700277F
:103DB8000E9708E0089FC9EB07070897C9F10007A5
:103DC8000E9700271197249F092F28D8052FC4BFC5
:103DD800043F2497249FA7F10203CCBF00250125A7
:103DE800032B21D8DFE803F0060F0204012702E0C5
:103DF800012709E000270F97259F002F1EDD0B974D
:103E080007973B461FE000270F97259F4F440B97C6
:103E180001373B460797012BB8BF012313E0012563
:103E2800002724970F9501E001270F974FF0FF37E0
:103E38000B97079700271223259704E001270B9774
:103E480007973B462597DAF8244000226260042150
:103E580001F114029A4221D8626801326260490075
:103E6800F6E700BFAFF3008061436F63A787D23FD7
:103E7800B3C8608B288AC63FFB799F501344D33F51
:103E88000000F07FA54E00089C4E00089B4E0008DD
:103E9800EEFBFFFF0000F83FB84E0008504661688F
:103EA80000F053FCDAF82430079F20601B680A935F
:103EB8000E2F00F26981002D00F066819DED047BD4
:103EC800B9F1000F8DED127B31DD804A09F00F0347
:103ED80002EBC30393ED007B4FEA2914E0068DED56
:103EE8000C7B0CD57A4BDDE91201D3E90823FCF7EA
:103EF8007FFC04F00F04CDE90401032700E002274A
:103F0800734D6CB1E10708D5DDE90C01D5E9002353
:103F1800FCF744FBCDE90C01013764100835F0E7E4
:103F2800DDE90401DDE90C23FCF762FC1BE0C9F1C3
:103F38000004DCB1654B664D04F00F0203EBC203CD
:103F4800DDE91201D3E90023FCF728FB241102273D
:103F58004CB1E20704D5D5E900230137FCF71EFB75
:103F680064100835F4E7CDE9040100E0022714994C
:103F7800E1B1DDE90445002220462946554BFCF70E
:103F88007FFDC0B1079ADAB10B9B002B40F3F88094
:103F980009F1FF3110910022204629464E4BFCF7CB
:103FA800FDFA0137CDE904010B9A0CE0079BCDF827
:103FB80040900C9308E00799CDF840900C9103E0ED
:103FC800079ACDF840900C923846FCF781FADDE963
:103FD8000423FCF7E3FA0022404BFCF72DF90C9F71
:103FE8000446A1F15075CFB900223D4BDDE904012B
:103FF800FCF720F922462B4606460F46FCF75EFDE5
:10400800002840F04B82224605F1004330463946ED
:10401800FCF736FD002840F03782B1E00C9F2B4BAF
:104028007A1E0F9F03EBC203002F5DD0D3E9002354
:1040380000202C49FCF7DCFB22462B46FCF7FAF85B
:10404800DDE90467DDF8288004460D463946304628
:10405800FCF73EFD0290FCF73BFA02460B46304661
:104068003946FCF7E7F8DDF808C00CF1300308F82A
:10407800013B22462B4606460F46FCF701FD002869
:1040880040F0338332463B4600201249FCF7D2F811
:1040980022462B46FCF7F4FC002840F0D4800A990D
:1040A8000C9AC1EB080393426ADA2046294600229B
:1040B800094BFCF773FA002204460D463046394690
:1040C800054BFCF76BFA06460F46BFE7B84E0008EB
:1040D800804F00080000F03F0000244000001C4012
:1040E800000014400000E03FD3E9000122462B46BF
:1040F800FCF754FADDF828800C9B0A9CCDE91601E0
:10410800DDE90467984439463046FCF7E1FC05468A
:10411800FCF7DEF9303502460B4630463946FCF7E7
:1041280089F804F8015B444506460F4621D1002270
:10413800874BDDE91601FCF77FF802460B4630464F
:104148003946FCF7BBFC00287DD1DDE916230020A9
:104158007F49FCF76FF802460B4630463946FCF7B4
:104168008FFC68B1A046013C18F8013C302BF9D00F
:10417800BBE20022774BFCF711FA06460F46C2E76E
:104188009DED127B8DED047B199B002B7CDBB9F137
:104198000E0F79DC704B259F03EBC903002FD3E981
:1041A800004514DA079F002F11DC40F06F8120468C
:1041B80029460022694BFCF7F1F9DDE90423FCF7F5
:1041C80073FC079D2C46002840F062816AE1DDE916
:1041D8000467DDF8288022462B4630463946FCF72E
:1041E80007FBFCF775FC0490FCF772F922462B4696
:1041F800FCF7D4F902460B4630463946FCF71AF864
:10420800049F07F1300608F8016B0A9FC7EB080600
:10421800079FBE4202460B4629D1FCF70DF82246FD
:104228002B4606460F46FCF749FC70B9304639461E
:1042380022462B46FCF71AFC002800F05882049FFF
:10424800FB0702D453E2DDF8409043469846013B11
:1042580018F8012C392A06D10A9F9F42F6D130223C
:1042680009F101093A701A7801321A703FE2002206
:10427800384BFCF793F90022002306460F46FCF75B
:10428800F5FB0028A7D032E20F9F002F30D0249FE3
:10429800012F0ADC159F17B103F2334302E0189B84
:1042A800C3F136030E9D089E16E0079F7D1E0E9FE4
:1042B800AF4201DB7D1B06E00E9F0E95EB1B119FA5
:1042C8001F4411970025079F002F03DA0899002340
:1042D800CE1B01E0089E079B089F1F440897099F73
:1042E80050461F440121099700F002FB044602E0F2
:1042F8000E9D089E0F9C6EB1099F002F0ADD3B465C
:10430800089FB342A8BF3346FF1A0897099FFF1AB0
:10431800F61A09970E9F002F28DD0F9F07B3002D6F
:1043280010DD21462A46504600F084FB04465A46D2
:104338002146504600F0E5FA59460746504600F037
:1043480039FABB460E9F7A1B10D0504659460AE0F0
:104358000000E03F00002440B84E00080000144070
:104368000E9A5046594600F065FB83465046012197
:1043780000F0BEFA119F002F054605DD294650467C
:104388003A4600F057FB0546249F012F12DC04999A
:1043980081B9059AC2F3130373B922F000473F0DA0
:1043A8003F0557B1089F01370897099F01370997BB
:1043B800012702E0002700E0049F119941B12B6911
:1043C80005EB8303186900F046FAC0F1200000E00D
:1043D8000120099B034413F01F0308D0C3F12002F6
:1043E800042A02DDC3F11C0302E008D013461C3383
:1043F800089A09991A44194408921E440991089A7E
:10440800002A04DD5946504600F062FB8346099BAA
:10441800002B05DD294650461A4600F059FB054693
:104428001499E1B15846294600F0A5FB002816DA90
:1044380059460A225046002300F0D3F90F9A09F191
:10444800FF3983464AB12146002350460A2200F02C
:10445800C8F90B9B0793044601E00B990791079A4B
:10446800002A29DC249B022B26DD8AB9294605224D
:10447800079B504600F0B5F905462946584600F016
:104488007AFB00280EDC03E00C9D00E000252C469A
:10449800259FDDF828806FEA07090AE00C9DDDF802
:1044A80040902C460A9F312307F101083B7009F11F
:1044B80001092746002407E10F99002900F0BB8075
:1044C800002E05DD21465046324600F001FB044629
:1044D8009FB16168504600F038F9226902320646F9
:1044E80004F10C0192000C3000F026F950463146D8
:1044F800012200F0EDFA074600E027460A9E294609
:104508005846FFF7C5FA214600F1300C8046584658
:10451800CDF808C000F02FFB3A46089029465046CF
:1045280000F046FBC368DDF808C002464BB91146E7
:104538005846039200F01FFB039ADDF808C00346B3
:1045480000E00123504611460393CDF808C000F05F
:1045580031F9039BDDF808C063B9249A52B904996C
:1045680001F0010232B9BCF1390F35D0089B002B9C
:1045780024DC25E00899002902DA002B08DC1FE07A
:1045880023D1249A0ABB049901F00102EAB9F4E79D
:10459800594601225046CDF808C000F099FA29463C
:1045A800834600F0E8FA0028DDF808C003DC07D1EC
:1045B8001CF0010F04D0BCF1390F0DD008F1310CFB
:1045C80006F1010886F800C07EE0002B06F101081C
:1045D80009DDBCF1390F03D13923337001365BE0B3
:1045E8000CF1010368E00A9A07994646C2EB0803F2
:1045F8008B4206F801CC3CD059460A22002350468B
:1046080000F0EFF8BC428346214650464FF00A02BC
:104618004FF0000304D100F0E4F8044607466EE7C3
:1046280000F0DFF8394604460A225046002300F01D
:10463800D8F8074663E70F9E58462946FFF728FA39
:104648000A9F00F1300C07F806C0079F0136BE42EA
:1046580007DB0A9E012FACBFF61901362746002456
:1046680007E0594650460A22002300F0BAF883466C
:10467800E2E7594601225046CDF808C000F028FA72
:104688002946834600F077FA0028DDF808C003DCE5
:1046980014D11CF0010F11D016F8013C392BB0468B
:1046A80006F1FF3607D10A99B142F5D1312309F154
:1046B80001090B7008E00133337005E0B046013E94
:1046C80018F8013C302BF9D05046294600F072F812
:1046D8006FB12CB1BC4203D05046214600F06AF8B5
:1046E8005046394600F066F801E0DDF84090504643
:1046F800594600F05FF80023269F88F8003009F13A
:1047080001033B60289F27B1C7F8008001E00348F8
:1047180000E00A981BB0BDE8F08F00BF9A4E000871
:104728000048704768000020024B0146186800F0F6
:10473800FDBA00BF6400002010B50023934203D0E7
:10474800CC5CC4540133F9E710BD70B5456A044622
:104758000E463DB91020FFF7E7FF606245608560AF
:104768000560C560656AEB6843B1636ADA6852F848
:10477800260078B1016842F8261017E02046042187
:10478800212200F0C5FA636AE860DB68002BECD1EF
:10479800002070BD012101FA06F56A1D204692002D
:1047A80000F0B6FA0028F3D0466085600022026166
:1047B800C26070BD70B5446A06460D463CB910200B
:1047C800FFF7B2FF7062446084600460C4603DB16A
:1047D800736A6A68DB6853F82210296043F822502C
:1047E80070BD2DE9F0410C461E460D69074614318F
:1047F800002308681FFA80FC000C02FB0C6C504375
:1048080000EB1C4001331FFA8CFC060CAB420CEB8E
:10481800004041F8040BECDBD6B1A3689D4212DBE3
:10482800616838460131FFF790FF2269023204F1CE
:104838000C01804692000C30FFF77EFF2146384677
:10484800FFF7B8FF444604EB850301355E61256137
:104858002046BDE8F081030C1B0413B900041023A3
:1048680000E0002310F07F4F04BF0002083310F06F
:10487800704F04BF0001043310F0404F04BF8000A4
:104888000233002803DB420003D5581C7047184642
:10489800704720207047036813F007020BD0D90730
:1048A80022D49A0703D55B080360012070479B0850
:1048B80003600220704799B209B91B0C102213F04B
:1048C800FF0F04BF1B0A0832190704BF1B09043273
:1048D800990704BF9B080232D90702D45B0805D0A8
:1048E800013203601046704700207047202070474F
:1048F80010B50C460121FFF728FF0122446102612F
:1049080010BD2DE9F04F16460A6933699A4285B001
:104918000D4601DA35460E46D5F810803769AB6882
:10492800696808EB07049C42C8BF0131FFF70DFF17
:1049380000F1140303EB840101911A46DDF804A089
:10494800524503D2002142F8041BF7E705F1140190
:1049580006F1140201EB880802EB8707CDF80880FE
:104968000397039EB242154656D2B5F800C00432EA
:10497800BCF1000F25D00F461D46002657F8049BB2
:10498800D5F800801FFA89FB1FFA88FA0CFB0BAADE
:104998004FEA19494FEA1848B2440CFB098808EB5A
:1049A8001A481FFA8AFA4AEA084A4FEA1846DDF80E
:1049B8000880AB46B8454BF804AB01D95D46DDE746
:1049C8006E6032F8028CB8F1000F23D01E680F46D3
:1049D8001D464FF00009B7F800A0B5F802C008FB63
:1049E8000ACCE144B6B2AC4646EA09464CF8046B38
:1049F80057F8046BB5F804A0360C08FB06A6DDF8DA
:104A080008A006EB194657454FEA164901D26546F4
:104A1800E1E76E600433A4E7019B002C03DC04612A
:104A280005B0BDE8F08F53F8042D002AF7D1013CFA
:104A3800F3E7000012F003032DE9F04105460E46A6
:104A4800174607D0013B214A52F823200023FFF7DD
:104A5800C8FE0646BF1035D06C6A3CB91020FFF777
:104A680063FE6862446084600460C460D5F8248092
:104A7800D8F808407CB9284640F27121FFF738FF82
:104A88000023C8F808000446036004E07F1019D02A
:104A9800206870B10446FB07F8D5314622462846FF
:104AA800FFF72FFF314680462846FFF783FE46462C
:104AB800ECE7284621462246FFF723FF0023206023
:104AC8000360E7E73046BDE8F08100BFA84F000863
:104AD8002DE9F0470C464FEA621A236949680AEB48
:104AE8000309A3688046154609F101079F4202DDC4
:104AF80001315B00FAE74046FFF727FE0023064630
:104B080000F11402534504DA002142F8231001335E
:104B1800F8E720692AEAEA7104F1140315F01F0C7A
:104B280002EB810103EB800E16D0CCF1200A0025A0
:104B380018680A4600FA0CF0054342F8045B53F87B
:104B4800045B734525FA0AF501D21146F0E74D607A
:104B580045B109F1020705E053F8042B41F8042B8D
:104B68007345F9D3013F404637612146FFF722FEDE
:104B78003046BDE8F08702690B69D21A10B513D127
:104B88009C00143001F114020319224453F8044D17
:104B980052F8041D8C4203D008D24FF0FF3010BDEC
:104BA8009842F3D3002010BD104610BD012010BD5F
:104BB8002DE9F04706460C46084611461546FFF70C
:104BC800DAFF071E08D130463946FFF7BEFD01233C
:104BD80003614761BDE8F08701DB002703E0234656
:104BE80001272C461D4661683046FFF7AEFD226955
:104BF8002B69C760143405F1140606EB830A04EB2D
:104C0800820C00F11403002154F8047B56F8049B2D
:104C180011FA87F11FFA89F54FEA1949C5EB01081E
:104C2800C9EB174707EB28471FFA88F83914B2452C
:104C380048EA0747254643F8047BE5D865450DD281
:104C480055F8044B11FA84F6240C04EB2644B6B24A
:104C5800211446EA044443F8044BEFE753F8041DD3
:104C680009B9013AFAE70261BDE8F0872DE9F7438F
:104C780001211D46DDF82890DDF82C801446FFF749
:104C880064FDC5F30A570646C5F313030FB143F491
:104C980080130193D4B102A840F8084D6846FFF785
:104CA800FAFD009B48B1019AC0F1200102FA01F116
:104CB8000B43C2407361019200E07361019BB361D1
:104CC800002B0CBF01240224346107E001A8FFF780
:104CD800E2FD0124019B7361346120303FB1A7F2EA
:104CE80033470744C9F80070C0F135000AE006EB05
:104CF8008403A0F23240C9F800001869FFF7ABFD41
:104D0800C0EB4410C8F80000304603B0BDE8F0839B
:104D180038B502FB01F4214600F008F8054618B141
:104D280000212246FEF76EFB284638BD70B5CD1C23
:104D380025F0030508350C2D38BF0C25002D064637
:104D480003DA0C233360002070BD8D42F9D3204B69
:104D58001C6818462146A1B10B685B1B0ED40B2BAF
:104D680003D90B60CC18CD501FE08C4202D1626889
:104D780002601AE04B6863600C4616E00C4649680E
:104D8800E9E7144C23681BB9304600F025F8206089
:104D98002946304600F020F8431C0146D1D0C41CF7
:104DA80024F0030484420AD1256004F10B00231D7A
:104DB80020F00700C31A09D05A42E25070BD3046AD
:104DC800611A00F009F80130EED1BAE770BD00BFF2
:104DD800C0000020BC00002038B5064C0023054662
:104DE8000846236000F008F8431C02D1236803B189
:104DF8002B6038BD0C01002008B50A4B1A680AB9A7
:104E0800094A1A601B686A461844904206D900F09D
:104E18000DF80C2303604FF0FF3008BD014A106005
:104E2800184608BDC400002010010020014B186876
:104E3800704700BF64000020F8B500BFF8BC08BC8C
:104E48009E467047F8B500BFF8BC08BC9E46704740
:104E58000000000000000000010203040607080922
:104E680002030405060708090A0B0C0D0E0F1010A3
:104E78000102030405060708090A0B0C0D0E0F10A2
:104E88004300494E4600696E66004E414E006E6111
:104E98006E003000496E66696E697479004E614E25
:104EA80000504F534958002E000000000000000039
:104EB800000000000000F03F000000000000244057
:104EC80000000000000059400000000000408F4032
:104ED800000000000088C34000000000006AF8409D
:104EE8000000000080842E4100000000D0126341C1
:104EF8000000000084D797410000000065CDCD4137
:104F0800000000205FA00242000000E87648374217
:104F1800000000A2941A6D42000040E59C30A242B5
:104F28000000901EC4BCD64200003426F56B0C432A
:104F38000080E03779C3414300A0D88557347643D1
:104F480000C84E676DC1AB43003D9160E458E14332
:104F5800408CB5781DAF154450EFE2D6E41A4B44A7
:104F680092D54D06CFF08044F64AE1C7022DB544EC
:104F7800B49DD9794378EA440080E03779C3414346
:104F8800176E05B5B5B89346F5F93FE9034F384DA7
:104F9800321D30F94877825A3CBF737FDD4F157553
:104FA80005000000190000007D000000000000005E
:104FB80000000000000000000000000000000000E9
:104FC80000000000000000000000000000000000D9
:104FD80000000000000000000000000000000000C9
:104FE80000000000000000000000000000000000B9
:104FF80000000000000000000000000000000000A9
:0C5008000000000000000000000000009C
:04501400010200088D
:04501800D9010008B2
:10501C0000127A0000000000B44F0008D44F0008C2
:10502C00F44F000800000000000000000000000029
:10503C0000000000884E0008000000000000000086
:10504C000000000000000000000000000000000054
:10505C000000000000000000000000000000000044
:10506C000000000000000000000000000000000034
:10507C000000000004000020AF4E0008B04E0008F5
:10508C00B04E0008B04E0008B04E0008B04E0008FC
:10509C00B04E0008B04E0008B04E0008B04E0008EC
:1050AC00FFFFFFFFFFFFFFFFFFFFFFFFFFFF000002
:040000050800336D4F
:00000001FF
